:020000040800F2
:1000000000000220B10700083D0700083F07000874
:1000100041070008430700084507000800000000EA
:10002000000000000000000000000000470700087A
:1000300049070008000000004B0700084D070008B2
:10004000010800080108000801080008010800086C
:10005000010800080108000801080008010800085C
:10006000010800080108000801080008010800084C
:10007000010800080108000801080008010800083C
:10008000010800080108000801080008010800082C
:10009000010800080108000801080008010800081C
:1000A000010800080108000801080008010800080C
:1000B00001080008010800080108000801080008FC
:1000C00001080008010800080108000801080008EC
:1000D00001080008010800080108000801080008DC
:1000E00001080008010800080108000801080008CC
:1000F00001080008010800080108000801080008BC
:1001000001080008010800080108000801080008AB
:10011000010800080108000801080008010800089B
:10012000010800080108000801080008010800088B
:10013000010800080108000801080008010800087B
:100140000108000801080008010800085507000818
:10015000010800080108000801080008010800085B
:10016000010800080108000801080008010800084B
:10017000010800080108000801080008000000004C
:08018000010800080108000855
:1001880053B94AB9002908BF00281CBF4FF0FF31F6
:100198004FF0FF3000F00CB8ADF1080C6DE904CE5B
:1001A80004F0E4F9DDF804E0DDE9022304B0704767
:1001B800704700BF0348044B834202D0034B03B18E
:1001C800184770476C0500206C05002000000000EF
:1001D8000548064B1B1AD90F01EBA301491002D0A1
:1001E800034B03B1184770476C0500206C050020CD
:1001F8000000000010B5064C237843B9FFF7DAFF7A
:10020800044B13B10448AFF300800123237010BDE1
:100218006C050020000000005052000808B5054B8E
:100228001BB105490548AFF30080BDE80840FFF75A
:10023800CFBF00BF0000000070050020505200082A
:100248002DE9F04F8DB000240794089409940A947E
:100258000B940194564B1A6B42F010021A631A6BF6
:1002680002F010020192019A02941A6B42F0040201
:100278001A631A6B02F004020292029A03941A6B30
:1002880042F080021A631A6B02F080020392039A0A
:1002980004941A6B42F001021A631A6B02F001020D
:1002A8000492049A05941A6B42F002021A631A6BBC
:1002B80002F002020592059A06941A6B42F00802AF
:1002C8001A631B6B03F008030693069B394E2246FC
:1002D8000821304600F06AFCDFF8DC900122114664
:1002E800484600F063FCDFF8D48022464FF2100144
:1002F800404600F05BFC08270797012508950994FC
:100308000A9407A9304600F057FB07950895099409
:100318000A9407A9484600F04FFB07970227089759
:1003280009940A944FF0050ACDF82CA007A948466D
:1003380000F042FB07954FF49019CDF820900994EE
:1003480007A91F4800F038FB042307930894099471
:10035800DFF870B007A9584600F02EFB4FF4806311
:100368000793089709940A94CDF82CA007A9584632
:1003780000F022FB4FF210030793089509940A94A2
:1003880007A9404600F018FB202307930894099416
:1003980007A9404600F010FB0797CDF82090099474
:1003A80007A9304600F008FB0DB0BDE8F08F00BF8C
:1003B800003802400010024000080240000C0240D1
:1003C800000002400004024072B6FEE708B50A4881
:1003D8000A4B03600A4B436000238360C3604FF4F9
:1003E8008042026143618361C361036201F08EF957
:1003F80000B908BDFFF7E8FF6C7500200054004005
:10040800A086010008B50A480A4B03604FF4007241
:10041800426000238360C3600261074A42618361CE
:10042800C361036201F050FA00B908BDFFF7CCFFC1
:1004380024750020003C00400077010008B50D48F5
:100448000D4B03604FF48273436000238360C360E5
:10045800036143614FF400728261C36103624362C6
:1004680083620A23C36202F041F900B908BDFFF7AD
:10047800ABFF00BFCC7400200030014000B595B040
:100488003022002108A804F091FC00230393049370
:100498000593069307930193214A116C41F080510B
:1004A8001164126C02F080520192019A02931D4B62
:1004B8001A6842F480421A601B6803F4804302936E
:1004C800029B012308934FF48033099302230E9370
:1004D8004FF480020F92082210924FF4A8721192E2
:1004E80012930723139308A801F0ECFC98B90F2383
:1004F800039302230493002305934FF4A053069318
:100508004FF480530793052103A801F045FF20B954
:1005180015B05DF804FBFFF757FFFFF755FF00BF65
:10052800003802400070004008B500F08DF9094B12
:100538006322DA60FFF7A2FFFFF782FEFFF746FFAC
:10054800FFF760FFFFF77AFF03F0B2FE03F0D0FE7B
:10055800FCE700BF8805002000B583B000210091AA
:100568000C4B5A6C42F480425A645A6C02F4804232
:100578000092009A01911A6C42F080521A641B6C26
:1005880003F080530193019B072000F0D1F903B0D9
:100598005DF804FB0038024030B589B000230393AE
:1005A80004930593069307930268144B9A4201D06B
:1005B80009B030BD00250195114C236B43F00203AF
:1005C8002363236B03F002030193019B4FF4107321
:1005D800039312230493012305930423079303A988
:1005E800084800F0E9F90295236C43F400132364EA
:1005F800236C03F400130293029BD9E700540040D4
:10060800003802400004024070B58CB00023079304
:10061800089309930A930B93039304930593069302
:100628000268254B9A4201D00CB070BD0123039398
:10063800C02304930223059303A801F073FF002845
:1006480037D1002400941D4B1A6C42F400421A64FE
:100658001A6C02F400420092009A01941A6B42F05C
:1006680001021A631A6B02F001020192019A0294C4
:100678001A6B42F004021A631B6B03F00403029323
:10068800029B102307930226089609940A940625CC
:100698000B9507A90A4800F08FF94FF4A453079364
:1006A800089609940A940B9507A9064800F084F95E
:1006B800BAE7FFF789FEC4E7003C00400038024073
:1006C800000002400008024000B589B000230393EF
:1006D80004930593069307930268144B9A4202D039
:1006E80009B05DF804FB0021019103F584335A6CCD
:1006F80042F480525A645A6C02F480520192019A70
:1007080002911A6B42F001021A631B6B03F001039A
:100718000293029BE0230393022304930523079388
:1007280003A9034800F048F9DAE700BF00300140A8
:1007380000000240FEE7FEE7FEE7FEE7FEE770473F
:100748007047704708B500F099F808BD08B5024829
:1007580000F0F0FE08BD00BFA479002010B50346E4
:100768000C4A0D490D48006840B10C480068034424
:10077800521A934206D8094A136010BD0748084C1C
:100788000460F2E704F076FB0C2303604FF0FF30BF
:10079800F3E700BF0000022000040000C07500203D
:1007A800B87F002070470000DFF834D00D480E49AC
:1007B8000E4A002302E0D458C4500433C4188C42B3
:1007C800F9D30B4A0B4C002301E013600432A24218
:1007D800FBD3FFF7E7FF04F053FBFFF7A5FE7047D5
:1007E80000000220000000206C050020985200083C
:1007F8006C050020B47F0020FEE7000010B5044619
:100808000E4B1A784FF47A73B3FBF2F30C4A106864
:10081800B0FBF3F000F0BCF868B90F2C01D9012047
:100828000AE0002221464FF0FF3000F093F8054B14
:100838001C60002000E0012010BD00BF0400002063
:10084800000000200800002008B50B4B1A6842F48D
:1008580000721A601A6842F480621A601A6842F4D8
:1008680080721A60032000F063F80020FFF7C6FFCB
:10087800FFF772FE002008BD003C0240034A1168E1
:10088800034B1B780B441360704700BFC4750020EE
:1008980004000020014B1868704700BFC475002091
:1008A80038B50446FFF7F6FF0546B4F1FF3F02D01E
:1008B800044B1B781C44FFF7EDFF401BA042FAD302
:1008C80038BD00BF04000020002808DB0901C9B2B8
:1008D80000F1604000F5614080F80013704700F0B7
:1008E8000F000901C9B2014B1954704714ED00E01B
:1008F80000B500F00700C0F1070CBCF1040F28BFD9
:100908004FF0040C031D062B0FD9C31E4FF0FF3EFA
:100918000EFA0CF021EA000199400EFA03FE22EAD1
:100928000E0241EA02005DF804FB0023EEE7000036
:10093800074AD36823F4E0631B041B0C000200F48D
:10094800E060034343F0BF6343F40033D360704770
:1009580000ED00E010B50446054BD868C0F302204E
:10096800FFF7C6FF01462046FFF7AEFF10BD00BFE8
:1009780000ED00E0002807DB00F01F02400901231A
:100988009340024A42F82030704700BF00E100E07F
:100998000138B0F1807F0BD24FF0E0235861054A4F
:1009A800F02182F823100020986107221A6170470D
:1009B8000120704700ED00E000230F2B00F2EC80CF
:1009C80030B583B068E085684FEA430E032404FA23
:1009D8000EF425EA0405CC6804FA0EF42C4384606E
:1009E800446824EA02044A68C2F300129A40224387
:1009F80042605FE0DC08083450F8242003F0070563
:100A0800AD004FF00F0E0EFA05FE22EA0E0E0A692F
:100A1800AA4042EA0E0240F824205FE0072200E0E4
:100A2800002202FA0EF22A4302345C4D45F82420D3
:100A38005B4A94686FEA0C0224EA0C05D1F804E0DA
:100A48001EF4801F01D04CEA0405554CA560E468EB
:100A580002EA0405D1F804E01EF4001F01D04CEAB4
:100A680004054F4CE560646802EA0405D1F804E027
:100A78001EF4003F01D04CEA0405494C6560246827
:100A880022404D6815F4803F01D04CEA0402444CE2
:100A9800226001330F2B7DD801229A400C6804EAAA
:100AA800020C32EA0404F4D14C6804F00304013C5B
:100AB800012C88D94A6802F00302032A09D0C468C5
:100AC8005D000322AA4024EA02048A68AA4022435D
:100AD800C2604A6802F00302022A8BD004684FEA17
:100AE800430E032202FA0EF224EA02044A6802F0D4
:100AF800030202FA0EF2224302604A6812F4403FEF
:100B0800C7D000220192274A546C44F480445464AC
:100B1800526C02F480420192019A9C08A51C1F4A5B
:100B280052F8255003F0030E4FEA8E0E0F2202FAF8
:100B38000EF225EA02051C4A90423FF471AF02F515
:100B4800806290421AD002F58062904218D002F575
:100B58008062904216D002F58062904214D002F56D
:100B68008062904212D002F58062904210D002F565
:100B7800806290423FF452AF082252E7012250E7C8
:100B880002224EE703224CE704224AE7052248E7FF
:100B9800062246E703B030BD704700BF0038014069
:100BA800003C014000380240000002400AB1816167
:100BB8007047090481617047F8B50668346A04F023
:100BC8000F07C4F34343C4F30A14022B00D0F8BD43
:100BD8000546002CFBD02C2303FB0703596C002986
:100BE800F5D02C2303FB07031A6D2244DB6C9A42D1
:100BF80006D92C2303FB0705042385F86030E6E7B4
:100C08002246304601F0B1FE2C2303FB07535A6CF1
:100C180022445A641A6D22441A6506EB4716D6F820
:100C28001025C2F3C942B3F84030A342CFD1002AFD
:100C3800CDD0D6F8003523F0804343F00043C6F802
:100C480000352C2303FB075393F8542082F001024C
:100C580083F85420BBE7F0B585B004469DF82850CA
:100C68009DF82C60BDF8307090F8F802012837D054
:100C7800012084F8F8022C2000FB01404FF0000C02
:100C880080F83DC080F83830A0F8407080F83910FE
:100C980080F83F6002F07F0C80F83AC012F0800FB5
:100CA80016D12C2000FB01404FF0000C80F83BC00F
:100CB8002C2000FB014080F83C50029701960095DB
:100CC800206801F09CFF002384F8F83205B0F0BDDD
:100CD8002C2000FB01404FF0010C80F83BC0E7E7F7
:100CE8000220F3E790F8F832012B0BD010B5044638
:100CF800012380F8F832006802F019F8002084F81F
:100D0800F80210BD0220704700284DD070B58AB097
:100D18000446056890F8F932002B40D0032384F884
:100D2800F932EB6B13F4807F01D100232361206833
:100D380001F0AFFDA4465CF8106BEE46BCE80F006E
:100D4800AEE80F00BCE80F00AEE80F009CE8030017
:100D58008EE80300251D95E80E00304601F04EFD93
:100D68000121206801F02CFEA4465CF8106BEE46C9
:100D7800BCE80F00AEE80F00BCE80F00AEE80F00BB
:100D88009CE803008EE8030095E80E00304601F069
:100D980049FE012384F8F93200200AB070BD80F8BA
:100DA800F83203F0ADFAB9E70120704770B59DF845
:100DB8001050BDF818604FF02C0C0CFB010C8CF88F
:100DC8003B208CF83F307DB964464FF0030C84F823
:100DD80042C09DF81CC084F83DC0032B00F28180FE
:100DE800DFE803F00A7929512C2404FB01044FF0B1
:100DF800020C84F842C0F0E7012D72D1002A70D1AC
:100E08002EB92C2303FB0103012283F855202C2340
:100E180003FB010393F8553033B92C2303FB01037B
:100E2800002283F842205CE02C2303FB010302220A
:100E380083F8422055E092B92C2303FB010393F871
:100E480055302BB92C2303FB010383F8422048E0DB
:100E58002C2303FB0103022283F8422041E02C23C8
:100E680003FB010393F8543033B92C2303FB01032C
:100E7800002283F8422034E02C2303FB01030222E2
:100E880083F842202DE092B92C2303FB010393F849
:100E980055302BB92C2303FB010383F8422020E0B3
:100EA8002C2303FB0103022283F8422019E02C23A0
:100EB80003FB010393F8543033B92C2303FB0103DC
:100EC800002283F842200CE02C2303FB01030222BA
:100ED80083F8422005E02C2303FB0103002283F85A
:100EE80042202C2301FB03F3C218059C5464D664EA
:100EF800002482F86040146582F8391082F8614055
:100F080003F13801027C0144006801F095FF70BDCF
:100F180030B583B004460568D5F840340193D5F858
:100F280040340093009B23F02E030093019B13F0A1
:100F3800020F07D0019B13F0010F25D1009B43F04E
:100F480002030093019B13F0080F10D0009B43F09D
:100F580008030093019B13F0040F2DD0A369022B03
:100F680015D0E368012B22D0204603F026FA019B16
:100F780013F0200F03D0009B43F020030093009B45
:100F8800C5F8403403B030BD03F00AFAD6E7019B38
:100F980003F4C023B3F5802F04D00121206801F0A9
:100FA800BDFDE1E70221206801F0B8FDDCE74EF65F
:100FB8006022C5F80424D7E7204603F004FAD6E7F0
:100FC800F8B504460E46076807EB411707F5A06514
:100FD800AB6813F0040F0AD1AB6813F4807F49D1D2
:100FE800AB6813F0200F52D02023AB600AE0042333
:100FF800AB602C2303FB0103062283F86120006801
:1010080001F095FEAB6813F4007F71D1AB6813F063
:10101800010F00F09D80236943B12C2303FB064395
:101028009A6C2969C1F31201521A1A652C2303FB21
:101038000643012283F861200021D965AA6093F84C
:101048003F30002B5CD0022B5AD0032B01D0012B50
:101058005CD1D7F8003543F00053C7F800352C238E
:1010680003FB0643012283F860203146204603F043
:10107800A3F94BE04FF48073AB602C2303FB01030F
:10108800072283F86120006801F051FEBAE7AB68D7
:1010980013F0080F13D1AB6813F4806F1BD1AB6842
:1010A80013F0800FAED08023AB602C2303FB010329
:1010B800062283F86120006801F039FEA2E70823C0
:1010C800AB602C2303FB0103052283F86120006831
:1010D80001F02DFE96E74FF48063AB602C2303FBF1
:1010E8000103082283F86120006801F020FE89E7E7
:1010F8003146206801F01BFE4FF40073AB60F8BD69
:101108003146206801F013FE1023AB602369012BE0
:1011180009D02C2303FB064393F8542082F00102E4
:1011280083F85420EBE72C2303FB06439A6CB3F8AF
:101138004030B2FBF3F313F0010FE0D02C2303FB94
:10114800064393F8542082F0010283F85420D6E72E
:10115800AB6813F0020F5ED02C2303FB064393F811
:101168006130012B07D0033B052B0AD8DFE803F0D9
:101178003A09151C491C2C2303FB0643012283F85A
:1011880060200223AB602C2303FB064393F8602006
:101198003146204603F010F9B1E72C2303FB064340
:1011A800052283F86020ECE72C2202FB0642D36D6F
:1011B8000133D365022B06D913460022DA650422CF
:1011C80083F86020DDE72C2303FB0643022283F823
:1011D8006020D7F8003523F0804343F00043C7F878
:1011E8000035CEE72C2303FB0643022283F8602058
:1011F800D7F8003523F0804343F00043C7F80035A3
:10120800BFE72C2303FB0643DA6D0132DA650422BB
:1012180083F86020B5E7AB6813F0100F3FF46FAFA9
:101228002C2303FB064393F83F30032B0CD00BB160
:10123800022B06D12C2303FB06430022DA6523691F
:1012480063B11023AB605AE72C2303FB064300224B
:10125800DA653146206801F06AFDF2E72C2303FBCA
:101268000643032283F861203146206801F05FFDC0
:10127800E7E738B5036803EB411202F5A065AC68EF
:1012880014F0040F19D1AC6814F0200F21D02023DA
:10129800AB602C2303FB010393F83D30012B17D1DE
:1012A8002C2303FB0103002283F83D20022283F84C
:1012B8006020006801F03BFD0AE00423AB602C23AA
:1012C80003FB0103062283F86120006801F02FFD6B
:1012D80038BDAC6814F4007F1FD1AC6814F0010F5E
:1012E80022D02C2303FB01030022DA65AB6813F03C
:1012F800400F07D02C2303FB0103012283F83D2074
:101308004023AB600122AA602C2303FB010383F86E
:101318006120006801F00BFDDAE74FF40073AB6061
:10132800006801F004FDD3E7AC6814F0400F24D145
:10133800AC6814F0080F31D1AC6814F0100F39D034
:101348002C2202FB01020024D465032482F86140A8
:1013580092F83D205AB92C2202FB010292F83C2057
:101368002AB92C2202FB0102012082F83D0018460E
:1013780001F0DDFC1023AB60AAE72C2202FB01027E
:10138800042082F86100012082F83D000020D06529
:10139800184601F0CCFC4023AB6099E70823AB600A
:1013A8002C2303FB0103052283F86120006801F068
:1013B800BEFC8DE7AC6814F0800F25D0026982B1BD
:1013C8002C2202FB0102D36D0133D365022B12D804
:1013D8002C2303FB0103022283F860208023AB60E7
:1013E80076E72C2202FB0102062082F861001846EB
:1013F80001F09DFCF2E713460022DA65042283F827
:10140800602002F0D9FFE9E7AC6814F4806F13D1CB
:10141800AB6813F0020F3FF45BAF2C2303FB01030F
:1014280093F86130012B14D0033B052B1DD8DFE85E
:1014380003F04F565D641C642C2202FB0102082055
:1014480082F86100184601F072FC4FF48063AB60CB
:101458003EE72C2303FB0103012283F8602093F865
:101468003F30023BDBB2934209D90223AB602C2305
:1014780003FB010393F8602002F09EFF28E704694C
:1014880044B92C2303FB010393F8552082F0010291
:1014980083F85520012CE8D12C2303FB0103DB6CD6
:1014A800002BE2D02C2202FB0102B2F840201344A8
:1014B800013BB3FBF2F313F0010FD6D02C2303FB4F
:1014C800010393F8552082F0010283F85520CCE7F8
:1014D8002C2303FB0103022283F86020C5E72C2399
:1014E80003FB0103022283F86020BEE72C2303FBE1
:1014F8000103052283F86020B7E72C2404FB0104CC
:10150800E36D0133E365022B05D90022E26504226D
:1015180084F86020A9E72C2303FB0103022483F845
:101528006040D2F8003523F0804343F00043C2F80E
:1015380000359AE7F8B504460568284601F03CFAF4
:10154800012800D0F8BD206801F032FA0028F9D04F
:10155800206801F02DFA10F4001F03D023684FF41F
:1015680000125A61206801F023FA10F4801F03D09A
:1015780023684FF480125A61206801F019FA10F0BC
:10158800806F03D023684FF080625A61206801F0B1
:101598000FFA10F0020F02D0236802225A61206865
:1015A80001F006FA10F0005F08D023684FF00052EF
:1015B8005A61D5F8403413F0010F1DD0206801F0AE
:1015C800F7F910F0807F26D1206801F0F1F910F0CA
:1015D800080F24D1206801F0EBF910F0100F25D185
:1015E800206801F0E5F910F0007FABD0206801F029
:1015F80099FB074600262CE01021284601F050F9F7
:10160800284601F075F90121206801F087FA204683
:1016180002F0CCFED2E72046FFF77AFCD4E720465A
:1016280002F0B8FE236808225A61D3E7226893695A
:1016380023F0100393612046FFF7BEFA22689369EE
:1016480043F010039361CBE7F1B22046FFF711FE98
:101658000136A368B34212D906F00F0327FA03F341
:1016680013F0010FF4D005EB4613D3F8003513F44B
:10167800004FE9D0F1B22046FFF7A2FCE8E7236863
:101688004FF000725A615DE790F8F832012B0ED0E6
:1016980010B50446012180F8F812006801F07CFAC0
:1016A800206801F0F0F8002084F8F80210BD02204C
:1016B800704790F8F832012B0BD010B5044601237F
:1016C80080F8F832006801F06BFC002084F8F8021A
:1016D80010BD0220704708B5006801F03EFA08BD49
:1016E8002C2303FB010090F8600070472C2303FBB8
:1016F8000100006D704708B5006801F07BFA08BD6D
:1017080008B5006801F06BFA08BD0000002800F079
:10171800CC8070B5044690F83D30002B77D0242358
:1017280084F83D302268136823F0010313602268AF
:10173800136843F4004313602268136823F40043DA
:10174800136000F0DFFE62685A4B9A4264D85A4B25
:1017580098428CBF00230123002B40F0A8805749F2
:10176800A1FB00318B0C25686A6822F03F0242EA2F
:1017780091426A6021680A6A22F03F0266684D4D0C
:10178800AE424FD8013313430B622168CA6922F471
:101798004F4222F0FF026568464B9D424CD8431EDB
:1017A8006D00B3FBF5F3013340F6FC70034278D0CB
:1017B800C3F30B031A43CA6121680B6823F0C00303
:1017C800E269206A024313430B6021688B6823F4A3
:1017D800034323F0FF032269E068024313438B604D
:1017E8002168CB6823F0FF036269A06902431343B1
:1017F800CB602268136843F0010313600020206463
:10180800202384F83D30206384F83E0070BD80F8C2
:101818003C30FEF7C1FE82E7294B98428CBF00237B
:10182800012399E74FF4967505FB03F3254DA5FBB6
:1018380003539B090133A6E7A668BEB9431E05EB0F
:10184800450CB3FBFCF30133C3F30B03B3FA83F387
:101858005B0943BBC6B9431E05EB4505B3FBF5F36E
:101868000133C3F30B0343F40043A3E7431E05EB23
:10187800850C0CEB8C0CB3FBFCF30133C3F30B03AB
:10188800B3FA83F35B09E4E7431E05EB850505EB33
:101898008505B3FBF5F30133C3F30B0343F440436E
:1018A80088E7042386E7012384E7012070470120A5
:1018B800ACE700BFA08601007F841E0083DE1B43C7
:1018C800FF083D00D34D6210002800F0BF8038B5F6
:1018D800044690F84130002B51D0022284F8412070
:1018E8002168CB6923F47B6323F00F03CB61236862
:1018F8001A626369934263D0E368002B46D11025CE
:10190800A368202B00D86D00012000F0B5FE2369E4
:10191800B3F5007F3CD0B0FBF5F000EB800043004E
:101928006269B3FBF2F30533494AA2FB0323C3F30D
:10193800C002C2EBD3035B0811029A1EFD2A41D8EC
:1019480022690A4321681A430A622168CB6923F491
:101958007B6323F00F036268A0680243E0680243D8
:10196800A0690243134343F40063CB61236A012B4C
:101978002ED000206064012384F8413038BD80F8FF
:101988004030344B4363FEF73FFEA6E72025B7E718
:10199800E36853B1AD00B0FBF5F000EB8000430005
:1019A8006269B3FBF2F30533BEE7ED00B0FBF5F077
:1019B80000EB800043006269B3FBF2F30533B3E741
:1019C8000021BAE7636C43F0100363640120D5E794
:1019D800214B63632268214B9A421FD04FF040226B
:1019E800D36923F47B6323F00F03D36122681B4B75
:1019F8009A4215D04FF0402302221A622268174BF0
:101A08009A4210D04FF04025EB699BB26268B2F55C
:101A1800007F0AD0C2B94FF4807008E0104ADFE7AF
:101A2800A3F58063E8E70E4DEEE74FF48070B4F855
:101A380008C0A189228B40EA0C0001430A431343E2
:101A480043F40063EB6194E70020F0E7012070475E
:101A5800CDCCCCCCE31A0008F51C000800380040B7
:101A680000340040704708B5426A03681288DA609B
:101A7800436A02334362438D9BB2013B9BB2438569
:101A8800438D9BB203B108BD0268536823F0A003DD
:101A98005360012380F84130FFF7E4FFF3E7704714
:101AA80008B50368DA68C36A1A80C36A0233C36276
:101AB800438E9BB2013B9BB24386438E9BB203B1DC
:101AC80008BD0268536823F060035360012380F85F
:101AD8004130FFF7E4FFF3E7704710B584B00446E0
:101AE80002689368039390F84130DBB2042B06D068
:101AF80094F84130DBB2032B2CD004B010BD039B0B
:101B080013F0010F03D0536813F0400F1FD1039B4C
:101B180013F0400FECD023685A6812F0200FE7D07A
:101B28005A6822F060025A60002301932368DA6839
:101B380001929B680193019B012384F84130636CF7
:101B480043F0020363642046FFF7C6FFD0E7FFF7C0
:101B5800A7FFDCE7039B13F0020F04D023685B6840
:101B680013F0800F1DD1039B13F0080FC5D0236815
:101B78005A6812F0200FC0D05A6822F0A0025A60AA
:101B88000023029323689B680293029B012384F835
:101B98004130636C43F0040363642046FFF79CFF05
:101BA800ABE72046FFF75FFFDDE7704708B5436AFC
:101BB8009A1C426202681B88D360438D9BB2013B2A
:101BC8009BB24385438D9BB23BB90268536823F0AF
:101BD800A0035360438E9BB203B108BD012380F874
:101BE8004130FFF7E2FFF8E708B50268154B9A4263
:101BF8001CD04FF04023DA68C36A991CC1621A806E
:101C0800438E9BB2013B9BB24386438E9BB263B922
:101C180002680C4B9A420CD04FF04022536823F0D4
:101C280060035360438D9BB22BB108BDA3F580635D
:101C3800E1E7054AF2E7012380F84130FFF7B5FFF5
:101C4800F3E700BF003800400034004008B5436A9D
:101C58009A1C42621A880168134B994218D04FF0B7
:101C68004023DA60438D9BB2013B9BB24385438D91
:101C78009BB263B902680C4B9A420CD04FF04022D9
:101C8800536823F0A0035360438E9BB22BB108BD69
:101C9800A3F58063E5E7054AF2E7012380F84130C0
:101CA800FFF783FFF3E700BF00380040003400402F
:101CB80008B50368DA68C36A991CC1621A80438E42
:101CC8009BB2013B9BB24386438E9BB23BB90268F1
:101CD800536823F060035360438D9BB203B108BD82
:101CE800012380F84130FFF760FFF8E710B586B0B0
:101CF800044603689A680592704A93426FD04FF081
:101D08004022916804915B68039353680293636867
:101D1800B3F5007F01D0002B70D1059B13F0020FA3
:101D280003D0039B13F0800F5CD1049B13F0010FC9
:101D380003D0029B13F0400F58D1049B13F0400FBF
:101D480024D0029B13F0200F20D022685B4B9A42CC
:101D580050D04FF04022536823F06003536022684C
:101D6800536823F0A0035360002300932368DA68C4
:101D780000929B680093009B012384F84130636CB8
:101D880043F0020363642046FFF7A6FE059B13F0A9
:101D9800080F22D0039B13F0200F1ED0226853682F
:101DA80023F0A00353602268444B9A4224D04FF09A
:101DB8004022536823F06003536000230193236893
:101DC8009B680193019B012384F84130636C43F0C5
:101DD800040363642046FFF77FFE06B010BDA2F53A
:101DE80080628EE72046FFF7E1FE9EE72046FFF778
:101DF800FBFEA2E7324AAEE7314ADAE7049B13F06A
:101E0800020F03D0029B13F0800F4AD1059B13F0F9
:101E1800010F03D0039B13F0400F46D1059B13F02D
:101E2800400F1CD0039B13F0200F18D02268536872
:101E380023F0600353602268204B9A4239D04FF058
:101E48004022536823F0A0035360012384F84130F3
:101E5800636C43F0020363642046FFF73DFE049B76
:101E680013F0080FB9D0029B13F0200FB5D02268E9
:101E7800124B9A421FD04FF04022536823F0A00320
:101E880053602268536823F060035360012384F889
:101E98004130636C43F0040363642046FFF71CFE83
:101EA8009BE72046FFF7D2FEB0E72046FFF700FF8A
:101EB800B4E7034AC5E7024ADFE700BF003800403D
:101EC80000340040002800F0E08170B582B004467C
:101ED800036813F0010F3BD09F4B9B6803F00C0382
:101EE800042B2CD09C4B9B6803F00C03082B21D0AF
:101EF8006368B3F5803F4FD0B3F5A02F52D0964B0F
:101F08001A6822F480321A601A6822F480221A6051
:101F18006368002B50D0FEF7BDFC05468E4B1B684E
:101F280013F4003F14D1FEF7B5FC401B6428F5D923
:101F38000320B1E1884B5B6813F4800FD8D0864B3F
:101F48001B6813F4003F03D06368002B00F09F81E7
:101F5800236813F0020F54D07F4B9B6813F00C0FCB
:101F68003ED07D4B9B6803F00C03082B33D0E3680D
:101F7800002B68D0794B01221A60FEF78BFC0546CE
:101F8800754B1B6813F0020F54D1FEF783FC401BFE
:101F98000228F5D903207FE16F4A136843F48033A0
:101FA8001360B5E76C4B1A6842F480221A601A680D
:101FB80042F480321A60ABE7FEF76CFC0546664BCC
:101FC8001B6813F4003FC3D0FEF764FC401B642871
:101FD800F5D9032060E1604B5B6813F4800FC6D12C
:101FE8005D4B1B6813F0020F03D0E368012B40F030
:101FF8005081594A136823F0F803216943EAC10361
:102008001360236813F0080F42D063696BB3534B16
:102018000122C3F8802EFEF73DFC05464E4B5B6F50
:1020280013F0020F34D1FEF735FC401B0228F5D916
:10203800032031E1484A136823F0F803216943EA91
:10204800C1031360DDE7454B00221A60FEF722FC4E
:102058000546414B1B6813F0020FD2D0FEF71AFC5D
:10206800401B0228F5D9032016E13C4B0022C3F897
:10207800802EFEF70FFC0546374B5B6F13F0020FFF
:1020880006D0FEF707FC401B0228F5D9032003E120
:10209800236813F0040F77D02F4B1B6C13F0805F6D
:1020A80033D1002301932C4B1A6C42F080521A64EE
:1020B8001B6C03F080530193019B0125284B1B687F
:1020C80013F4807F23D0A368012B34D0052B38D09C
:1020D800214B1A6F22F001021A671A6F22F00402CC
:1020E8001A67A368002B3DD0FEF7D4FB06461A4BAF
:1020F8001B6F13F0020F46D1FEF7CCFB801B41F299
:1021080088339842F3D90320C6E00025D6E7144A5D
:10211800136843F480731360FEF7BCFB0646104B4C
:102128001B6813F4807FCED1FEF7B4FB801B022816
:10213800F5D90320B0E0084A136F43F00103136791
:10214800CFE7054B1A6F42F004021A671A6F42F084
:1021580001021A67C5E700BF003802400000474285
:1021680000700040FEF796FB0646524B1B6F13F0BB
:10217800020F08D0FEF78EFB801B41F2883398428D
:10218800F3D9032088E0EDB9A369002B00F0838020
:10219800484A926802F00C02082A51D0022B17D044
:1021A800454B00221A66FEF775FB0446414B1B6837
:1021B80013F0007F42D0FEF76DFB001B0228F5D913
:1021C800032069E03B4A136C23F080531364DBE778
:1021D800394B00221A66FEF75DFB0546354B1B6836
:1021E80013F0007F06D0FEF755FB401B0228F5D9F7
:1021F800032051E0E369226A1343626A43EA8213C7
:10220800A26A5208013A43EA0243E26A43EA0263D5
:10221800284A5360284B01221A66FEF73BFB044606
:10222800244B1B6813F0007F06D1FEF733FB001B1D
:102238000228F5D903202FE000202DE000202BE014
:10224800012B2BD01B4B5B6803F48001E2699142A0
:1022580026D103F03F02216A8A4223D1616A47F6F8
:10226800C0721A40B2EB811F1ED103F44031A26A3A
:102278005208013AB1EB024F18D103F07063E26AD9
:10228800B3EB026F14D1002006E001207047012053
:1022980002E0012000E0002002B070BD0120FBE751
:1022A8000120F9E70120F7E70120F5E70120F3E72E
:1022B8000120F1E7003802400000474208B5334BDF
:1022C8009B6803F00C03042B5BD0082B5BD12F4BCE
:1022D8005A6802F03F025B6813F4800F2CD02B4B36
:1022E8005868C0F388104FEA401CBCEB000C6EEB3A
:1022F8000E0E4FEA8E1343EA9C634FEA8C11B1EB42
:102308000C0163EB0E03DB0043EA5173C90011EBC8
:10231800000C43F10003590200234FEA4C2041EA24
:10232800DC51FDF72DFF194B5B68C3F30143013303
:102338005B00B0FBF3F027E0144B5868C0F388103B
:102348004FEA401CBCEB000C6EEB0E0E4FEA8E13EE
:1023580043EA9C634FEA8C11B1EB0C0163EB0E036B
:10236800DB0043EA5173C90011EB000C43F1000391
:10237800990200234FEA8C2041EA9C51FDF700FFA7
:10238800D1E7034800E0034808BD00BF0038024019
:1023980000127A000024F400002800F09B8070B539
:1023A8000D4604464F4B1B6803F007038B4208D2C7
:1023B800CBB24C4A1370136803F007038B4240F00A
:1023C8008B80236813F0020F17D013F0040F04D08A
:1023D800454A936843F4E0539360236813F0080F69
:1023E80004D0414A936843F4604393603E4A93683B
:1023F80023F0F003A1680B439360236813F0010FE7
:1024080032D06368012B21D09A1E012A25D9364A79
:10241800126812F0020F61D033498A6822F0030271
:1024280013438B60FEF736FA06462F4B9B6803F082
:102438000C036268B3EB820F16D0FEF72BFA801BF1
:1024480041F288339842F0D9032042E0264A1268C4
:1024580012F4003FE0D101203BE0234A126812F059
:10246800007FD9D1012034E01E4B1B6803F007031D
:10247800AB4207D9EAB21B4B1A701B6803F007037B
:10248800AB422DD1236813F0040F06D0164A936887
:1024980023F4E053E1680B439360236813F0080FBB
:1024A80007D0114A936823F46043216943EAC103C2
:1024B8009360FFF703FF0C4B9B68C3F303130B4AAE
:1024C800D35CD8400A4B18600A4B1868FEF796F997
:1024D800002070BD012070470120FAE70120F8E7CD
:1024E8000120F6E7003C0240003802407052000824
:1024F8000000002008000020014B1868704700BF4A
:102508000000002008B5FFF7F7FF044B9B68C3F3F2
:102518008223034AD35CD84008BD00BF003802407C
:102528006852000830B583B00446036813F0050FFD
:1025380006D1236813F0020F2ED1002003B030BD5E
:102548004A4B00229A66FEF7A5F90546484B1B68D8
:1025580013F0006F06D0FEF79DF9431B022BF5D947
:102568000320EBE76268A3681B0743EA8213404A2B
:10257800C2F884303D4B01229A66FEF78BF9054676
:102588003B4B1B6813F0006FD3D1FEF783F9431B55
:10259800022BF5D90320D1E700230193344B1A6CA1
:1025A80042F080521A641B6C03F080530193019B24
:1025B800304A136843F480731360FEF76BF90546DD
:1025C8002C4B1B6813F4807F06D1FEF763F9431B7D
:1025D800022BF5D90320B1E7254B1B6F13F4407389
:1025E80014D0E26802F440729A420FD0204B1A6F5E
:1025F80022F440721D490120C1F8400E0020C1F8A4
:10260800400E1A671B6F13F0010F13D1E36803F430
:102618004072B2F5407F1ED0154A936823F4F81330
:10262800936013490B6FE268C2F30B0213430B6705
:10263800002083E7FEF72EF905460D4B1B6F13F0BC
:10264800020FE3D1FEF726F9401B41F28833984286
:10265800F3D9032072E706498A6822F4F81223F0B6
:10266800704323F4407313438B60DAE7000047425A
:102678000038024000700040012801D00020704757
:10268800164B9B6813F4000303D0012B23D1144885
:102698007047124B5B6813F4800F14D00F4B5A68C5
:1026A80002F03F020F4BB3FBF2F30C4AD2F884005E
:1026B800C0F3881003FB00F0D2F88430C3F3027330
:1026C800B0FBF3F07047054B5A6802F03F02064B27
:1026D800B3FBF2F3E9E70020704700BF003802407F
:1026E8000080BB0000127A000024F40000285AD0B1
:1026F80010B50446436A33B94368B3F5827F05D001
:102708000023C36102E00023036143610023A36245
:1027180094F85130002B40D0022384F851302268BD
:10272800136823F040031360636803F48273A2689C
:1027380002F404421343E26802F40062134322697C
:1027480002F002021343626902F001021343A26914
:1027580002F400721343E26902F038021343226A5A
:1027680002F080021343A26A02F400522168134364
:102778000B60638B03F00403626A02F010022168A5
:1027880013434B602268D36923F40063D3610020AC
:102798006065012384F8513010BD84F8503020461C
:1027A800FDF792FFB8E701207047000082B00023D0
:1027B8000193019B01330193019A0F4B9A4215D85B
:1027C8000369002BF5DA00230193036943F0010341
:1027D8000361019B01330193019A074B9A4208D880
:1027E800036913F0010FF4D1002000E0032002B0C8
:1027F80070470320FBE700BF400D030084B010B50D
:10280800044603A880E80E00089B012B1FD1A36B88
:1028180023F48033A363E36823F4840323F04003A1
:10282800E360E36823F44013E3600F9B012B09D0B6
:102838002046FFF7BBFF069B012B1BD0BDE81040CD
:1028480004B07047E36843F48013E360F0E7E3689B
:1028580043F04003E3602046FFF7A8FF0C9B23B931
:10286800A36B43F48033A363E5E7A36B23F48033BE
:10287800A363E0E7A36843F00603A360A36843F0FB
:102888002003A360DAE7836843F001038360002034
:102898007047836823F001038360002070470000BD
:1028A80082B000230193019B01330193019A0F4BDE
:1028B8009A4215D80369002BF5DA002301938901A0
:1028C80041F020010161019B01330193019A074BFB
:1028D8009A4208D8036913F0200FF4D1002000E0D1
:1028E800032002B070470320FBE700BF400D030040
:1028F80082B000230193019B01330193019A0E4B8F
:102908009A4213D80369002BF5DA002301931023A8
:102918000361019B01330193019A074B9A4208D83E
:10292800036913F0100FF4D1002000E0032002B077
:1029380070470320FBE700BF400D030010B59DF86A
:10294800084084B903334FEA930E4FF0000C08E0B7
:1029580000EB023303F5805351F8044B1C600CF173
:10296800010CF445F4D3002010BD10B58446084688
:102978004FEA920E02F00302002305E00CF58051A5
:10298800096840F8041B01337345F7D37AB10CF595
:10299800805CDCF800400021CBB2DB0024FA03F3B2
:1029A80000F8013B0131013A92B2002AF4D110BD7E
:1029B8004269806910407047406900F00100704723
:1029C80038B50546C36823F0C043C360012913D056
:1029D80019BBC36843F08043C36000240120FDF79E
:1029E8005FFF01342846FFF7E7FF08B1312CF5D91E
:1029F800322C14D0002038BDC36843F00053C360A4
:102A080000240120FDF74CFF01342846FFF7D4FFCE
:102A18000128EDD0312CF4D9EAE70120EBE70120B9
:102A2800E9E7000084B038B5044605A880E80E0040
:102A38000023C4F8003EA36B43F40013A363A36B05
:102A480023F40023A363A36B23F48023A363E36B22
:102A580013F4807F10D0079B012B06D0D4F80034E4
:102A680023F00403C4F800340CE0D4F8003443F035
:102A78000403C4F8003405E0D4F8003423F0040358
:102A8800C4F8003410212046FFF70AFF054600B1BC
:102A980001252046FFF72CFF00B10125002209E09F
:102AA80004EB42134FF0FF31C3F808150021C3F8B7
:102AB8000C150132069B9342F2D80023A3614FF014
:102AC800FF336361E36B13F4807F17D04FF4007317
:102AD800636203F18073A3620D4BC4F80031089B55
:102AE8001BB9A36943F01003A361A269094B1343FF
:102AF800A3612846BDE8384004B07047802363626C
:102B080003F5C003A362044BC4F80031E7E700BF34
:102B18000003E000080020A3E000400000F5806CFE
:102B2800D0F8003423F00303C0F80034D0F80034A0
:102B380001F003021343C0F80034012903D002292D
:102B480006D0002070474BF68033CCF80430F8E705
:102B580041F27073CCF80430F3E730B583B0044623
:102B680000250195D0F840340193019B23F02E03F2
:102B78000193019B43F48073C0F840346420FDF74F
:102B88008FFE019B23F48073C4F840340A20FDF7BC
:102B980087FE284603B030BD82B000230193D0F8E9
:102BA80040340193019B23F02E030193019B13F4FE
:102BB800805F01D101290CD0019B13F4805F05D0FF
:102BC80021B9019B23F48053C0F84034002002B09F
:102BD8007047019B43F48053C0F84034ECE782B05F
:102BE80000230193D0F8403401930198C0F3414089
:102BF80002B0704700F58060806880B270472DE9A8
:102C0800F84391461C469DF8245000EB411606F502
:102C1800A0634FF0FF329A60032D75D8DFE805F006
:102C28000266021840F29D42DA6019F0800F09D15D
:102C3800C26B12F4807F69D0DA6842F06002DA6011
:102C480000270CE0DA6842F48072DA60002706E0B8
:102C580040F29D62DA6019F0800F41D10027DA68EE
:102C680042F00202DA60D0F8183401F00F010122B4
:102C78008A401343C0F81834836943F000738361B2
:102C880019F0800F44D14FF00008FFF7A8FF9DF816
:102C98002030022B3FD00022A30503F0FE534FEA59
:102CA800C92909F4F04943EA0903A90401F44021B8
:102CB8000B43BDF82810C1F30A010B4343EA08038C
:102CC8001343C6F80035032D01D0012D05D1D6F8E0
:102CD800003543F00053C6F800353846BDE8F883A0
:102CE800DA6842F48072DA600027B8E740F22522F9
:102CF800DA6019F0800F01D10027B0E7DA6842F4F2
:102D0800C072DA600027AAE70127A8E70027A6E72C
:102D18004FF40048B9E7022802D04FF40032BBE76D
:102D28000022B9E700F58060406980B2704710B4AE
:102D380083B00023019300EB411101F5A06CD1F899
:102D48000035C3F38143D1F80025846814F0200FBF
:102D580002D0D20F002A51D023B3022B22D0D1F8AF
:102D6800003543F08043C1F80035D0F8103413F42F
:102D78007F0F47D1D1F8003523F00043C1F8003563
:102D8800D1F8003543F00043C1F80035019B013309
:102D98000193019BB3F57A7F30D8DCF80030002B23
:102DA800F4DB2BE0D1F8003543F08043C1F800355F
:102DB800836813F0200F21D1C36A13F47F0F17D152
:102DC800D1F8003523F00043C1F80035D1F80035BB
:102DD80043F00043C1F80035019B01330193019B87
:102DE800B3F57A7F0AD8DCF80030002BF4DB05E075
:102DF800D1F8003543F00043C1F80035002003B096
:102E080010BC7047D1F8003543F00043C1F80035D5
:102E1800F4E7000000EB4110064AC0F81025D0F88E
:102E2800003523F0804343F00043C0F8003500200C
:102E3800704700BF0000088030B585B04B78C46B80
:102E480014F4807F07D00C792CB9012A16D012B956
:102E58004C79012C1FD04C690CB30D8904EB050C7F
:102E68000CF1FF3CBCFBF5FC1FFA8CFCBCF5807F29
:102E780017D92D020D614FF4807C12E0CC790CB18A
:102E8800022CE4D100EB4314D4F80C5525F070055E
:102E9800C4F80C55DBE74978FFF7BCFF6FE04FF04B
:102EA800010CCD78002D51D00C8904FB0CF40C6179
:102EB8000C69C4F31204394D05EACC4C44EA0C04FD
:102EC80091F80AC04FEA4C7C0CF0C04C00EB43135D
:102ED80044EA0C04C3F8104512B1CC68C3F8144591
:102EE80000F58065AC6814F0010F0CBF4FF0010CC1
:102EF8004FF0000CD3F8004524F00054C3F8004507
:102F0800D3F8004544EA4C74C3F80045D3F80045AB
:102F18000394039C24F080440394CC78C4B1039CAC
:102F280044F400440394039C44F000440394039C39
:102F3800C3F800451ABBCB780BBB4B69FBB1CA7908
:102F4800032A15D8DFE802F0091E091E0C61AFE755
:102F5800039C24F400440394E5E70333C26A92B265
:102F6800C3F38F039A4203D2836943F0200383613A
:102F7800002300938B8A4A78C968FFF7DFFC00209A
:102F880005B030BD03332A6992B2C3F38F039A4266
:102F9800EED2836943F080638361E9E70000F81F9C
:102FA80030B583B0044600230193FFF772FC10216B
:102FB8002046FFF775FC054600B101252046FFF7BE
:102FC80097FC00B1012500220AE004EB4211D1F878
:102FD800003523F0802343F08043C1F800350132E7
:102FE8000F2AF2D9002100E001310F2916D804EB8D
:102FF800411000F5A062D0F8003523F4004343F0F7
:103008004043C0F80035019B01330193019BB3F5A0
:103018007A7FE9D81368002BF5DBE5E74FF0FF333B
:10302800C4F8143463612046FFF72DFC284603B02A
:1030380030BD0020704708B5212202742022427456
:103048000022428282820722C28200F0ABFF08BDC2
:1030580008B5A1220274212242740022428282828F
:103068000722C28200F09EFF08BD38B50446D0F89A
:103078007C33D9694031FFF7EBFF054620B9D4F816
:10308800D433022120469847284638BD38B504462F
:10309800D0F87C33DD69297879B9297BB1B9697BA6
:1030A800F1B9D4F87C33D86928B101F0C5FBD4F85C
:1030B8007C330022DA61002038BD01F0C0F829789D
:1030C800204601F0D4F800232B70E6E7204601F0F3
:1030D800B6F8297B204601F0CAF800232B73DEE7F7
:1030E800204601F0ACF8697B204601F0C0F80023C7
:1030F8006B73D6E7F0B585B004460123022211466A
:1031080000F042FB012800F2AE8006460146204648
:1031180000F030FB0746002840F0A980D4F87C5323
:10312800502001F081FBE861D4F87C33DD69002D83
:1031380000F09F8050220021284601F037FE1A2314
:1031480003FB064393F84E2393F94E33002B72DBAF
:103158006978204601F078F8014628706A786B890A
:1031680002930323019394F81D33009394F81C33BE
:10317800204601F054F800222978204601F07EF913
:1031880000231A460A21204600F0FEFA012872D8C8
:103198001A2303FB004393F84E2393F94E33002B75
:1031A80051DBAA731A2303FB0043B3F850332B8374
:1031B8001A2303FB004393F8562393F95633002B45
:1031C80049DBAA731A2303FB0040B0F858332B835A
:1031D800A97B204601F038F86873E97B204601F0A6
:1031E80033F82873AA7B697B2B8B029302260196FE
:1031F80094F81D33009394F81C33204601F00FF81F
:10320800EA7B297B6B8B0293019694F81D3300931C
:1032180094F81C33204601F002F8002685F84C602B
:103228003246697B204601F029F93246297B20463F
:1032380001F024F918E06A701A2303FB0646B6F871
:1032480050336B8184E7EA731A2303FB0043B3F816
:1032580050336B83ACE7EA731A2303FB0043B3F8DC
:1032680058336B83B4E70227384605B0F0BD022710
:10327800FAE70227F8E70227F6E7704730B583B088
:103288000546D0F87C33DC6994F84D30012B03D027
:10329800022B19D003B030BD606A228B90420AD944
:1032A800637BE16901200090284600F07FFF02233C
:1032B80084F84D30EEE7637BE1690122009282B227
:1032C800284600F073FFF2E7617B01F0C3F801289C
:1032D80005D00228DED1012384F84D30DAE7636A8D
:1032E800228B93420AD99B1A6362E3691344E36110
:1032F800636A33B1012384F84D30CBE7002363625E
:10330800F6E7002384F84D302846FFF7B6FFC1E7FB
:10331800704738B50446D0F87C33DD6995F84E30EF
:10332800032B02D0042B09D038BD2B7B6A8B296A6A
:1033380000F052FF042385F84E30F5E7297B01F0B1
:1033480089F80128F0D1297B204601F07DF8AB6A85
:1033580083420BD06A8B824208D21B1AAB622B6A5B
:1033680003442B62032385F84E30DDE7002385F8FC
:103378004E302046FFF7CCFFD6E7704770B50446BD
:10338800D0F87C33DE6996F84C50042D04D8DFE879
:1033980005F03B0513353D00012535E0B16CFFF71D
:1033A8004AFE18B9022386F84C302DE0012836D0A1
:1033B800042386F84C3027E006F14001FFF748FE69
:1033C8000546A0B9002386F84C30736CB26C51687E
:1033D8004B4033F07F4324D1316C1368994201D0BC
:1033E800012511E02046FFF7C8FF01250CE0012860
:1033F8000AD0042386F84C30012505E0FFF73EFF8C
:103408002046FFF786FF0125284670BD002100F001
:1034180084FE40B9002386F84C300125F4E70546C0
:10342800F2E70125F0E70125EEE78446002306E0F0
:1034380003F1E0020CEB82020021516001330F2BF3
:10344800F6D9002305E00CEB0302002182F81C11D9
:103458000133B3F5007FF6D300208CF800008CF818
:10346800010001238CF80230CCF8C4038CF8183022
:1034780040228CF806208CF819008CF81C038CF874
:103488001D338CF81F038CF81E03704708B50378AA
:10349800DBB20B2B00D008BDD0F87C33002BFAD060
:1034A8009B699847F7E770B584B004464578072DBF
:1034B80000F22C81DFE815F00800480069009A0046
:1034C800BF00E500FE001701082100F0ACFD18B1AF
:1034D800032821D0012509E194F82D33A371012592
:1034E800657002930026019694F81D33009394F8B2
:1034F8001C3380222179204600F091FEA3790293A3
:10350800019694F81D33009394F81C333246617980
:10351800204600F084FEE9E094F81E330133DBB264
:1035280084F81E33032B03D90D2323700125DDE016
:103538006179204600F09BFE2179204600F097FE35
:10354800002323700125D1E0122100F06CFD10B991
:1035580002236370CAE0032840F0C88094F81E3341
:103568000133DBB284F81E33032B02D90D232370F9
:10357800BCE06179204600F07AFE2179204600F00F
:1035880076FE002363702370B0E0012100F092FD05
:1035980018B1032824D00125A8E0022000F083FFF9
:1035A800012584F81C5303236370A3790293002632
:1035B800019694F81D3300932B46802221792046EA
:1035C80000F02DFEA3790293019694F81D33009321
:1035D80094F81C3332466179204600F020FE85E0DD
:1035E8000D2323700023637001257FE0092100F07B
:1035F80033FD18B904236370012577E0032801D04F
:10360800012573E094F81E330133DBB284F81E33CE
:10361800032B03D90D232370012567E06179204628
:1036280000F025FE2179204600F021FE002363707A
:10363800237001255AE0B0F83A1300F00DFD18B9CF
:1036480005236370012551E0032801D001254DE0D1
:1036580094F81E330133DBB284F81E33032B03D9ED
:103668000D232370012541E06179204600F0FFFD1C
:103678002179204600F0FBFD0023637023700125AB
:1036880034E090F8341319B90623437001252DE06E
:10369800FF2300F58E7200F0F5FC18B9062363705D
:1036A800012523E0032801D001251FE006236370CC
:1036B80001251BE090F8351319B90723437001253C
:1036C80014E0FF2300F58E7200F0DCFC18B9072324
:1036D800637001250AE0032801D0012506E00723CD
:1036E8006370012502E090F8365315B9284604B0F6
:1036F80070BDFF2300F58E72294600F0C3FC054615
:103708000028F3D0032803D00125EFE70125EDE7D2
:103718000025EBE7D8B170B50E46044680F8CC23F7
:103728000025C0F87C53C0F88053FFF77EFE84F86C
:10373800235384F8205384F8215384F822530EB17C
:10374800C4F8D463204600F045FE002070BD022076
:1037580070470A4651B1D0F880334BB9591CC0F8AC
:103768008013DE3340F82320002070470220704782
:103778000220704790F83C338B4203D980F8241319
:10378800002070470220704710B5044600200BE067
:103798004FF01A0C0CFB0E4E9EF849C39C451CD0EA
:1037A800FF2B1AD00130C0B2012815D886464FF039
:1037B8001A0C0CFB004C9CF847C38C4501D0FF2920
:1037C800F0D14FF01A0C0CFB0E4C9CF848C39445F2
:1037D800DED0FF2AE6D1DBE7FF2010BD10B5044696
:1037E80000F06FFE0121204600F03AFE002010BDD7
:1037F80030B587B0044602238DF8173090F821338E
:10380800DBB2012B11D02378DBB20B2B7BD8DFE89E
:1038180013F00F002100450011017A007D00EE0031
:1038280092009C00A600C200080103230370EAE787
:1038380094F82033002B66D001232370C82000F0B1
:1038480032FE204600F04DFE002384F81C33C4F8F5
:10385800C83358E094F82333012B0FD0D4F8C83379
:10386800B3F57A7F13D994F81F330133DBB284F8A8
:103878001F33032B08D90D23237044E0002384F859
:103888001F33022323703EE0002323703BE00A33FA
:10389800C4F8C8330A2000F006FE34E0D4F8D43364
:1038A80013B1042120469847642000F0FCFD20460F
:1038B80000F0BAFD84F81D0305232370002120467B
:1038C80000F0C2FC60718021204600F0BDFC01467A
:1038D8002071A37902930025019594F81D33009374
:1038E80094F81C338022204600F099FCA3790293B7
:1038F800019594F81D33009394F81C332A46617996
:10390800204600F08CFC002007B030BD2046FFF7B1
:10391800CAFD8DF817009DF81730002BF3D184F8F5
:10392800243394F83733012B02D007232370EAE7B6
:1039380008232370E7E7D4F8D433002BE3D0012120
:103948002046984708232370DDE794F83D13204666
:1039580000F0C1FB0028D6D109232370D3E794F8DF
:103968003F3313F0200F02D10A232370CBE7012144
:10397800204600F0C1FB8DF817009DF8173013B9E9
:103988000A232370BFE79DF81730DBB2032BBAD1A7
:103998000A232370B7E7D4F88033002BB3D0002371
:1039A800C4F87C3373B1D4F87C33EBB19B68204600
:1039B8009847B0B906232370D4F8D433032120469E
:1039C8009847A0E703F1DE0254F82220107994F812
:1039D8004713884202D00133DBB2E3E7C4F87C2303
:1039E800E1E70D2323708EE70D2323708BE7D4F8CE
:1039F8007C339BB11B69204698478DF817009DF8CA
:103A0800173013B90B2323707DE79DF81730DBB20D
:103A1800022B7FF478AF0D23237074E70D232370F6
:103A280071E7D4F87C33002B3FF46DAF5B69204617
:103A3800984768E7002384F821332046FFF7F5FC10
:103A4800D4F87C332BB1DB68204698470023C4F8B0
:103A58007C33D4F8D43313B105212046984794F821
:103A68002233DBB2012B03D0204600F02AFD4AE7BF
:103A7800002384F822332046FFF7B0FE43E7C0F85E
:103A8800C413704708B5D0F8C4230132C0F8C42362
:103A9800FFF7FCFC08BD012380F82333704700239F
:103AA80080F8233370470346012280F82023002042
:103AB80083F8210383F82203704738B504460123AD
:103AC80080F82133002580F8205380F8235300F034
:103AD80000FD2179204600F0CAFB6179204600F0FC
:103AE800C6FB284638BD000010B40B7803704B782D
:103AF80043708B78CC7843EA042343800B790371B5
:103B08004B7943718B798371CB79C371202B26D87C
:103B1800082B07D3083BDBB2124C24FA03F313F04B
:103B2800010F01D14023C371082A16D90B7A4A7AAA
:103B380043EA022303818B7ACA7A43EA0223438148
:103B48000B7B4A7B43EA022383818B7B8373CB7B8A
:103B5800C3730B7C03744B7C437410BC7047402BBD
:103B6800E0D1E1E7010100010B7803704B78437065
:103B78008B788370CB78C3700B7903714B79437161
:103B88008B798371CB79C3710B7A0372704710B547
:103B9800864613780B7053784B7093788B7092F835
:103BA80003C081F803C01379507943EA00238B805E
:103BB80094798C7193B103F478438B80107952799E
:103BC80040EA022212F4C06F05D1C2F30A0213437D
:103BD8008B80002003E04FF40072F8E703209EF882
:103BE8001D3373B90CF0030CBCF1010F03D0BCF109
:103BF800030F00D010BD013CE4B20F2CFAD903200A
:103C0800F8E70CF0030CBCF1010F06D0BCF1030F70
:103C1800F0D1002CEED16046ECE7013CE4B20F2C69
:103C2800E8D90320E6E74378032B00D070470378F0
:103C3800023B9A4228BF1A4692B2002307E000EBE3
:103C4800030C9CF802C001F801CB02339BB29342EB
:103C5800F5D300230B70E9E730B583B00446057E41
:103C68006B1E0A2B00F2DE80DFE803F006103541F8
:103C780054617E8A9DAAC100427900F1100100F0CA
:103C88005EFA02232376284603B030BD417900F05E
:103C9800E1FB0546012805D0042818D0022816D0D3
:103CA8000125F0E7237CE28A42B113F0800F02D1AC
:103CB80005232376E7E703232376E4E713F0800F51
:103CC80002D107232376DEE709232376DBE70B23DC
:103CD80023760125D7E7D0F8C433C38103798289D5
:103CE800816800F053FA042323760125CBE7017994
:103CF80000F0B0FB012806D0052800F095800428C4
:103D080004D00125BFE709232376F8E70B232376A0
:103D18000125B8E70125009543798289816800F07B
:103D28001FFAD4F8C433E38106232376ABE741793D
:103D380000F090FB0546012807D0052808D0022886
:103D48000AD004280CD001259DE7072323769AE79B
:103D58000C232376032596E705232376012592E78E
:103D68000B23237602258EE703790022114600F003
:103D78000DFAD4F8C433E38108232376012582E7BA
:103D8800017900F067FB012805D0042807D0052831
:103D98004CD0012577E70D232376002573E70B2305
:103DA800237601256FE70125009543790022114606
:103DB80000F0D6F9D4F8C433E3810A23237662E706
:103DC800417900F047FB012805D0022807D00428D4
:103DD80009D0012557E70D232376002553E709234A
:103DE800237601254FE70B23237601254BE7437EF6
:103DF8000133DBB24376022B03D8012505768570A3
:103E080041E7D0F8D43306219847002565766179D3
:103E1800204600F02CFA2179204600F028FA257077
:103E2800022530E701252EE703252CE703252AE79D
:103E38000B88027813440B800378184470472DE9E7
:103E4800F04383B005460C46097880F83813637848
:103E580080F83933A378E07843EA0023B3F5807F0C
:103E680028BF4FF48073A5F83A33237985F83C339B
:103E7800637985F83D33A37985F83E33E37985F88E
:103E88003F33237A85F84033092902D0092385F87E
:103E98003833092A7FD90923ADF80630002637467A
:103EA800012E6FD8B5F83A23BDF806309A4269D981
:103EB8000DF106012046FFF7BBFF04464378042BAB
:103EC800EED10378092B01D009230370B14605F51B
:103ED8004E701A2306FB03F30833184421460230B8
:103EE800FFF742FE4FF0000824E01A2303FB0953B2
:103EF80093F84833022B3AD11A2303FB095393F85A
:103F0800493323B90378092B01D00923037005F538
:103F18004E7108F101081A2303FB09F303EBC803E8
:103F280008331944224604312846FFF730FE074675
:103F38005FFA88F81A2303FB095393F8463343457D
:103F48001BD9B5F83A13BDF80620914215D90DF1E1
:103F580006012046FFF76CFF04464378052BE9D19C
:103F68001A2303FB095393F84733012BBDD0237859
:103F7800072BCCD007232370C9E7434510D8013657
:103F8800F6B28DE795F83C33022B28BF0223B342E3
:103F980002D9032700E00027384603B0BDE8F083C4
:103FA8000327F9E710B504468078012803D00228D2
:103FB80008D0012010BDA160A2810123237602232D
:103FC800A370F7E72046FFF747FE30B1032804D077
:103FD8000228EFD10123A370ECE70123A37000238B
:103FE8002376E7E708B58E4694461946BDF80820BB
:103FF8008378012B02D0FFF7D5FF08BD6EF07F0E46
:1040080080F810E006234374A0F812C00CF47F4C2B
:10401800BCF5407F03D000238382C282EBE740F2E5
:1040280009438382F9E7F0B583B004460D4600F5ED
:104038008E76009133464FF480720021FFF7D2FF4D
:10404800074610B1384603B0F0BD2A46314604F29F
:104058002630FFF749FDF5E770B582B004460D46F6
:1040680000F11C06009133464FF400720021FFF75F
:10407800B9FF08B102B070BD2A4631462046FFF7A5
:10408800DEFEF7E7F0B583B016461D4600F58E74E0
:104098000093234641F440720021FFF7A3FF07462F
:1040A80010B1384603B0F0BD2A4631462046FFF726
:1040B800BAFDF6E708B58378012B04D00022114633
:1040C800FFF770FF08BD0023037405224274418284
:1040D8008382C382F2E708B58378012B04D00022DB
:1040E8001146FFF75FFF08BD0023037409224274DD
:1040F80041828382C382F2E708B58378012B04D01A
:1041080000221146FFF74EFF08BD00230374032267
:10411800427441828382C382F2E708B58378012B17
:1041280004D000221146FFF73DFF08BD02230374A7
:1041380001234374002343828182C382F1E710B5CF
:1041480084B00B461146002403940822029201937E
:1041580000942346224600F0E7F9204604B010BD3B
:1041680030B585B00C4619469DF8203090F81D539F
:1041780005B10023039302920194012300930023C5
:104188001A4600F0D1F9002005B030BD30B585B031
:104198000D461946002403940292019501220092CB
:1041A800234600F0C1F9204605B030BD30B585B0D2
:1041B8000C4619469DF8203090F81D5305B1002390
:1041C800039302920194012300930223002200F03A
:1041D800ABF9002005B030BD30B585B00D461946A5
:1041E800002403940292019501220092022300F018
:1041F8009BF9204605B030BD00230F2B0CD803F1E6
:10420800E00200EB8202526812F4004F02D0013340
:10421800DBB2F2E7184670474FF6FF70704710B5EB
:1042280084B0BDF8204002949DF81C4001949DF88C
:104238001840009400F05DF9002004B010BD08B5E6
:1042480000F06AF9002008BD38B504460D46FFF7AE
:10425800D3FF4FF6FF73984207D000F00F0345F4E1
:104268000045E03304EB83046560C0B238BD0F2914
:1042780006D8E03100EB81004368C3F30E034360C6
:104288000020704704290CD0052902D0022904D047
:104298007047064B03221A707047044B02221A70AB
:1042A8007047024B01221A70F2E700BFC875002060
:1042B80008B501220B490C48FFF72CFA48B90B49FD
:1042C8000948FFF746FA38B90748FFF787FA30B9BF
:1042D80008BDFCF779F8F2E7FCF776F8F4E7FCF7A5
:1042E80073F8F5E78D420008CC7500200C0000201B
:1042F80008B50248FFF77CFA08BD00BFCC7500205E
:1043080070B588B00023039304930593069307932D
:104318000368B3F1A04F01D008B070BD0025019526
:104328001A4C236B43F001032363236B03F001034F
:104338000193019B4FF400730393154E03A9304674
:10434800FCF73AFB4FF4E0530393022304930595DB
:1043580006950A23079303A93046FCF72DFB636BE8
:1043680043F0800363630295636C43F480436364A2
:10437800636C03F480430293029B2A462946432038
:10438800FCF7E8FA4320FCF7F5FAC5E700380240E5
:104398000000024008B5D0F80003FFF773FB08BD22
:1043A80008B5D0F80003FFF77EFB08BD08B5D0F8C4
:1043B8000003FFF782FB08BD704708B5D0F800037B
:1043C800FFF769FB08BD08B5D0F80003FFF767FBE6
:1043D80008BD000090F8CC33012B01D000207047B5
:1043E80010B504460F48C0F80043C4F8D0034FF096
:1043F800A0430360082383600123C3600023036193
:1044080002228261C361FCF77FFC40B90548FDF7D1
:1044180072F901462046FFF732FB002010BDFBF77A
:10442800D3FFF3E7A479002008B5D0F8D003FDF74F
:1044380067F9012804D0022804D000B1012008BD82
:104448000120FCE70220FAE708B5D0F8D003FDF711
:104458004DF908BD08B5D0F8D003FDF741F908BDFE
:1044680008B590F8CC33012B04D0C820FCF718FA13
:10447800002008BD084600F06DF8F6E7D0F8D03304
:104488002C2000FB013090F83B0030B12C2000FBC1
:10449800013181F85420002070472C2000FB0131A5
:1044A80081F85520F7E708B5FCF7FAF908BD0228A6
:1044B80005D8DFE800F0050402000120704702205B
:1044C800704708B5D0F8D003FDF7DEF8FFF7EFFF27
:1044D80008BD08B5D0F8D003FDF7EBF8FFF7E7FF04
:1044E80008BD08B5D0F8D003FDF7F5F8FFF7DFFFF2
:1044F80008BD10B584B0D0F8D003BDF820400294B0
:104508009DF81C4001949DF818400094FCF7A3FB0B
:10451800FFF7CDFF04B010BD08B5D0F8D003FCF705
:10452800E1FBFFF7C4FF08BD10B584B0D0F8D00395
:104538009DF824400394BDF820400294079C019400
:104548009DF818400094FCF731FCFFF7B0FF04B069
:1045580010BD000008B5024600B101220121024841
:10456800FCF724FB08BD00BF000802402DE9F04716
:10457800089D0C46002B4ED194468C458646B2FACF
:1045880082F262D94AB1C2F12003914020FA03F3C2
:104598000CFA02FC194300FA02FE4FEA1C471FFA04
:1045A8008CF6B1FBF7F44FEA1E4307FB141143EAFC
:1045B800014304FB06F199420AD91CEB030304F1F9
:1045C800FF3080F01381994240F21081023C63442D
:1045D800591A1FFA8EF3B1FBF7F007FB101143EAE3
:1045E800014300FB06F69E420AD91CEB030300F1C7
:1045F800FF3180F0FD809E4240F2FA806344023829
:104608009B1B40EA044000211DB1D3400022C5E9AC
:104618000032BDE8F0878B4205D90DB1C5E900012C
:1046280000210846F5E7B3FA83F1002946D1A342F1
:1046380002D39042C0F0F180861A64EB0303012094
:10464800002DE6D0C5E90063E3E7002A40F0918039
:10465800A1EB0C044FEA1C481FFA8CF70121B4FBAC
:10466800F8F64FEA1E4308FB164443EA044307FBE7
:1046780006F0984208D91CEB030306F1FF3402D276
:10468800984200F2CE8026461C1A1FFA8EF3B4FB1D
:10469800F8F008FB104443EA044300FB07F79F4285
:1046A80008D91CEB030300F1FF3402D29F4200F249
:1046B800B1802046DB1B40EA0640A5E7C1F1200691
:1046C8008B4022FA06F71F4320FA06FC04FA01F38E
:1046D80043EA0C03F44000FA01F8380C4FEA134996
:1046E800B4FBF0FE1FFA87FC00FB1E4449EA0444B1
:1046F8000EFB0CF9A14502FA01F20AD93C190EF198
:10470800FF3A80F08580A14540F28280AEF1020E2A
:104718003C44A4EB09041FFA83F9B4FBF0F300FB53
:10472800134449EA044403FB0CFCA44507D93C198B
:1047380003F1FF3068D2A44566D9023B3C4443EA02
:104748000E40A0FB0293A4EB0C049C42CE469C4670
:1047580052D34FD055B1B8EB0E0364EB0C0404FAF6
:1047680006F6CB40CC401E43C5E900640021BDE8F5
:10477800F087C2F1200320FA03F10CFA02FC24FAB4
:1047880003F394400C434FEA1C4800FA02FE1FFA58
:104798008CF7B3FBF8F008FB1031230C43EA014314
:1047A80000FB07F1994208D91CEB030300F1FF361F
:1047B8002CD299422AD9023863445B1AA4B2B3FBBB
:1047C800F8F108FB113344EA034401FB07F3A34261
:1047D80008D91CEB040401F1FF3613D2A34211D906
:1047E80002396444E41A41EA004138E70446EFE636
:1047F800084605E7C845ADD2B9EB020E63EB070CD6
:104808000138A7E73146EDE7034698E73046D4E795
:10481800D6467EE7634402384CE7064623460846F8
:104828000EE7023E63442FE7024B0146186800F08A
:104838000BB800BF40040020024B0146186800F086
:10484800A9BB00BF400400202DE9F04F01F10B0582
:10485800162D83B0064624D8102900F2BD8000F03A
:1048680099FA102518220220B74F3A44A2F10801FC
:1048780053688B4200F009815A68D96822F0030214
:104888001A449C68E1608C60516841F0010130462F
:10489800516003F1080400F083FA204603B0BDE834
:1048A800F08F35F0070500F19780A94200F2948057
:1048B80000F070FAB5F5FC7FC0F041816B0A00F09A
:1048C8008F80042B00F20C81AB0903F1390003F14E
:1048D800380CC3009C4F3B44A3F108045B689C421E
:1048E80006D10CE0002980F2CD80DB689C4206D01E
:1048F8005A6822F00302511B0F29F3DD6046DFF8E6
:104908004CC23C69644500F0AB80626822F0030247
:10491800531B0F2B00F32081002BC7E904CC80F236
:104928000481B2F5007F80F0B680D308796801333E
:104938004FEA521E012202FA0EF20A4357F833E0F8
:10494800C4F808E007EBC3010839E1607A6047F86A
:104958003340CEF80C40831001219940914245D84C
:10496800114206D120F003004900114200F1040071
:10497800FAD007EBC0094C468646D4F80C8044456B
:1049880008D1B9E0002B80F2C080D8F80C804445EB
:1049980000F0B280D8F8042022F00302531B0F2B3A
:1049A800F0DD3046D8E9026408EB050145F0010561
:1049B800C8F80450F460A66043F00104C7E9041184
:1049C8004C60C1F808C0C1F80CC048F8023000F0CB
:1049D800E7F908F1080460E70C23336000245CE77A
:1049E8004FF4007340204FF03F0C73E7BC686368D6
:1049F80023F00308A84503D3A8EB05030F2B31DCEC
:104A0800534B1A68534B196801312A4404EB080ABE
:104A180000F04C8102F580520F3222F47F6222F0BE
:104A28000F0211463046009200F012FAB0F1FF3F33
:104A3800009A484B814605D0824540F2A680BC4288
:104A480000F0E580BC68626822F00302AA42A2EB8B
:104A5800050301D30F2B05DC304600F0A1F9BDE7B3
:104A68007A6878E7621943F0010345F0010565604B
:104A78003046BA60536000F093F90834204603B01A
:104A8800BDE8F08FD9681A44FBE6D3689A427FF4F0
:104A9800F3AE023033E7B2F5206F4FEA52236ED3FC
:104AA800142B00F21F8103F15C01C9005B3307EB93
:104AB800010E7958AEF1080E8E4503D1F8E08968E9
:104AC8008E4504D04B6823F003039342F7D8D1F8FE
:104AD8000CE07A68C4E9021ECEF80840CC603AE7D8
:104AE800142B73D9542B00F205812B0B03F16F00A3
:104AF80003F16E0CC300EDE60EF1010E1EF0030F7C
:104B080004F108047FF439AF6BE04244444653682B
:104B1800D8F80C1043F00103536054F8083F3046AE
:104B2800D9608B6000F03CF9B7E622443046536800
:104B380043F001035360083400F032F9ADE6E808A9
:104B480005F1080290E600BF380000204000002070
:104B5800D87C00202C000020611945F00105656013
:104B680043F00105C7E904113046C1F808C0C1F88F
:104B78000CC04D60A35000F013F908348DE693097A
:104B880003F13901C900383391E7DFF8FCB1DBF8EC
:104B980000101144CBF8001008463FD1C9F30B0CA4
:104BA800BCF1000F3AD1D7F80890424442F0010214
:104BB800C9F80420754B1868884238BF1960744BCF
:104BC8001868884238BF19604C463DE703F15C001D
:104BD80003F15B0CC3007DE659F808394B4540F0FA
:104BE800D08010F0030F00F1FF30F5D17B6823EA85
:104BF80001037B60490099423FF6F8AE19B9F5E622
:104C080049000EF1040E1942FAD07046B1E6DFF8F9
:104C180078B1DBF800001044CBF8000019680131C6
:104C28001BBFA9EB0A031B18C3F80090CBF8003090
:104C380019F0070345D0C3F108018944C3F5805131
:104C48004A440831891AC1F30B0A51463046019388
:104C5800009200F0FDF8421CDDE9002376D0A0EBBD
:104C6800090000EB0A02DBF80030C7F8089042F0B0
:104C780001020AEB0301BC42C9F80420CBF800107A
:104C880098D0B8F10F0F3FD96268A8F10C0323F050
:104C9800070302F001021A436260E21805200F2B95
:104CA8005060906048D8D9F8042083E71032B8E6FD
:104CB8009A104FF001087B6808FA02F21A437A60EA
:104CC80008E709EB02014942C1F30B0A5146304695
:104CD8000193009200F0BCF8431CDDE90023BED12B
:104CE8009A46C0E7542B13D8130B03F16F01C90080
:104CF8006E33DCE6B3F5AA7F13D8EB0B03F178002B
:104D080003F1770CC300E5E50123C9F80430A3E6F5
:104D1800B3F5AA7F21D8D30B03F17801C900773303
:104D2800C5E640F25452934221D8AB0C03F17D0002
:104D380003F17C0CC300CDE504F10801304600F016
:104D480029F9D7F80890DBF80010ACE7083B1A44BB
:104D5800A2EB09024FF0000A85E740F254518B425A
:104D68000BD8930C03F17D01C9007C339FE64FF407
:104D78007E737F204FF07E0CACE54FF47E717E236E
:104D880095E67B6836E700BFA87C0020D47C00202D
:104D9800D07C0020014800F09BB800BF187E00209E
:104DA800014800F097B800BF187E0020830730B58F
:104DB80047D0541E002A3ED0CAB2034601E0013C47
:104DC80039D303F8012B9D07F9D1032C2CD9CDB287
:104DD80005EB05250F2C05EB054535D9A4F1100287
:104DE80022F00F0C03F1100EE6444FEA121C1A468B
:104DF800156055609560D56010327245F8D10CF198
:104E0800010214F00C0F03EB021204F00F0C13D084
:104E1800ACF1040323F003030433134442F8045BA6
:104E28009A42FBD10CF003042CB1C9B21C4403F81C
:104E3800011B9C42FBD130BD64461346002CF4D1C3
:104E4800F9E703461446C0E71A46A446E0E700BF60
:104E580038B5074D0022044608462A60FBF77EFC59
:104E6800431C00D038BD2B68002BFBD0236038BD15
:104E7800147E0020014B1868704700BF40040020D2
:104E880070B50F4B0F4DAB42A3EB050607D0B6101C
:104E9800002455F8043B01349847A642F9D800F09D
:104EA800D3F9094D094B5E1BAB424FEAA60606D063
:104EB800002455F8043B01349847A642F9D870BD40
:104EC8008C5200088C5200088C520008945200083A
:104ED800704700BF704700BF024B13B1024800F093
:104EE80005B8704700000000A151000800230146E2
:104EF8001A46184600F064B9F8B5234F0C46064622
:104F0800FFF748FFBB685D6825F0030505F6EF73FA
:104F1800191B21F47F6121F00F01A1F58054B4F52C
:104F2800805F07DB00213046FFF792FFBB682B4408
:104F3800984204D03046FFF733FF0020F8BD6142A5
:104F48003046FFF785FF01300DD0104ABB682D1B96
:104F580045F001055D60136830461B1B1360FFF7C1
:104F68001FFF0120F8BD00213046FFF771FFBA6826
:104F7800831A0F2BDEDD43F001035360044B034912
:104F88001B68C01A0860D5E738000020A87C0020FC
:104F98002C00002000297DD0F8B50C460646FFF706
:104FA800F9FE54F8042C794FA4F1080522F0010108
:104FB80005EB010CB868DCF80430604523F0030306
:104FC80000F08880D207CCF8043032D454F8082C8A
:104FD800AD1A1144AA6807F1080082426BD00CEBA5
:104FE8000304D4F804E0EC68D4601EF0010FA2605A
:104FF80000F0898041F001036B60CCF80010B1F536
:10500800007F24D27868CB080122490901338A40FD
:10501800024357F833107A6007EBC302083AC5E930
:10502800021247F83350CD603046BDE8F840FFF72C
:10503800B7BE0CEB03025268D2072CD541F001032E
:10504800B1F5007F44F8043CCCF80010DAD3B1F590
:10505800206F4FEA512358D28B0903F1390003F12D
:105068003802C300F818FB580838984203D166E0A4
:105078009B68984204D05A6822F003028A42F7D803
:10508800D868C5E902308560DD603046BDE8F84083
:10509800FFF786BE7047194407F10800DCF80830AE
:1050A800834243D0DCF80C20DA60936041F00103BE
:1050B8006B606950A3E70CEB03025268D0075FD41A
:1050C8000B44DCE90212CA60916043F001026A6095
:1050D800EB50A9E70B44D10707D454F8082CAD1AB4
:1050E8001344D5E90212CA60916043F001026A6074
:1050F800274ABD6012689A4296D8264B30461968EE
:10510800FFF7FAFE90E71944C8E7142B08D9542B87
:105118001DD80B0B03F16F0003F16E02C300A1E76A
:1051280003F15C0003F15B02C3009BE741F001035C
:105138003D617D61A860E8606B60695074E77968DB
:105148009210012404FA02F20A437A6099E7B3F54F
:10515800AA7F06D8CB0B03F1780003F17702C300CE
:1051680080E740F25452934206D88B0C03F17D003D
:1051780003F17C02C30075E74FF47E737E2271E76A
:1051880041F001036B60CCF800104DE738000020B7
:1051980030000020D87C002038B5074D074C2C1B68
:1051A800A41005D0013C55F8043D9847002CF9D1CE
:1051B800BDE8384000F04EB89852000894520008F4
:1051C8002DE9F047DFF874A00646DAF800009846A3
:1051D8000F469146FFF77CFE194B1C6824B365689F
:1051E8001F2D24DC5EB96B1C0235DAF80000636001
:1051F80044F82570FFF76EFE0020BDE8F08704EB49
:1052080085010123C1F88890D4F88821AB401A435E
:10521800022EC4F88821C1F80881E4D1D4F88C2181
:105228001A43C4F88C21DEE7064C1C60D7E7DAF88D
:105238000000FFF74FFE4FF0FF30DEE76805002063
:10524800207E0020247E0020F8B500BFF8BC08BCF2
:105258009E467047F8B500BFF8BC08BC9E4670472C
:10526800000000000102030400000000000000002C
:0C52780001020304060708094344430038
:08528400F0F2FF7F01000000C1
:08528C00E14E000825020008B4
:04529400FD01000810
:105298000024F40001000000100000008052000803
:1052A80002000000FD300008953000087330000847
:1052B800853300083B30000800000000FFFFFFFFB7
:1052C80000000200000000000000000000000000D4
:1052D8003800002038000020400000204000002056
:1052E8004800002048000020500000205000002006
:1052F80058000020580000206000002060000020B6
:105308006800002068000020700000207000002065
:105318007800002078000020800000208000002015
:1053280088000020880000209000002090000020C5
:105338009800002098000020A0000020A000002075
:10534800A8000020A8000020B0000020B000002025
:10535800B8000020B8000020C0000020C0000020D5
:10536800C8000020C8000020D0000020D000002085
:10537800D8000020D8000020E0000020E000002035
:10538800E8000020E8000020F0000020F0000020E5
:10539800F8000020F8000020000100200001002093
:1053A8000801002008010020100100201001002041
:1053B80018010020180100202001002020010020F1
:1053C80028010020280100203001002030010020A1
:1053D8003801002038010020400100204001002051
:1053E8004801002048010020500100205001002001
:1053F80058010020580100206001002060010020B1
:105408006801002068010020700100207001002060
:105418007801002078010020800100208001002010
:1054280088010020880100209001002090010020C0
:105438009801002098010020A0010020A001002070
:10544800A8010020A8010020B0010020B001002020
:10545800B8010020B8010020C0010020C0010020D0
:10546800C8010020C8010020D0010020D001002080
:10547800D8010020D8010020E0010020E001002030
:10548800E8010020E8010020F0010020F0010020E0
:10549800F8010020F801002000020020000200208E
:1054A800080200200802002010020020100200203C
:1054B80018020020180200202002002020020020EC
:1054C800280200202802002030020020300200209C
:1054D800380200203802002040020020400200204C
:1054E80048020020480200205002002050020020FC
:1054F80058020020580200206002002060020020AC
:10550800680200206802002070020020700200205B
:10551800780200207802002080020020800200200B
:1055280088020020880200209002002090020020BB
:105538009802002098020020A0020020A00200206B
:10554800A8020020A8020020B0020020B00200201B
:10555800B8020020B8020020C0020020C0020020CB
:10556800C8020020C8020020D0020020D00200207B
:10557800D8020020D8020020E0020020E00200202B
:10558800E8020020E8020020F0020020F0020020DB
:10559800F8020020F8020020000300200003002089
:1055A8000803002008030020100300201003002037
:1055B80018030020180300202003002020030020E7
:1055C8002803002028030020300300203003002097
:1055D8003803002038030020400300204003002047
:1055E80048030020480300205003002050030020F7
:1055F80058030020580300206003002060030020A7
:105608006803002068030020700300207003002056
:105618007803002078030020800300208003002006
:1056280088030020880300209003002090030020B6
:105638009803002098030020A0030020A003002066
:10564800A8030020A8030020B0030020B003002016
:10565800B8030020B8030020C0030020C0030020C6
:10566800C8030020C8030020D0030020D003002076
:10567800D8030020D8030020E0030020E003002026
:10568800E8030020E8030020F0030020F0030020D6
:10569800F8030020F8030020000400200004002084
:1056A8000804002008040020100400201004002032
:1056B80018040020180400202004002020040020E2
:1056C8002804002028040020300400203004002092
:1056D800480400200000000000000000DC7C0020DE
:1056E800447D0020AC7D0020000000000000000088
:1056F80000000000000000000000000000000000A2
:105708000000000000000000000000000000000091
:105718000000000000000000000000000000000081
:105728000000000000000000000000000000000071
:105738000000000000000000000000000000000061
:105748000000000000000000000000000000000051
:105758000000000000000000000000000000000041
:105768000000000000000000000000000000000031
:1057780001000000000000000E33CDAB34126DE6CE
:10578800ECDE05000B000000000000000000000037
:105798000000000000000000000000000000000001
:1057A80000000000000000000000000000000000F1
:1057B80000000000000000000000000000000000E1
:1057C80000000000000000000000000000000000D1
:1057D80000000000000000000000000000000000C1
:1057E80000000000000000000000000000000000B1
:0C57F80000000000000000001C7E0020EB
:04000005080007B137
:00000001FF
